:020000040800F2
:1000000068940020DD010008FD520008013300085B
:10001000BD5200081B1700081B5C00080000000010
:100020000000000000000000000000004501000882
:100030002D17000800000000890100081D58000865
:10004000F7010008F7010008F7010008F7010008B0
:10005000F7010008F7010008F7010008F7010008A0
:10006000F7010008F7010008F7010008F701000890
:10007000F7010008F7010008F7010008F701000880
:10008000F7010008F7010008F7010008F701000870
:10009000F7010008F7010008F7010008F701000860
:1000A000F7010008FD580008F7010008F7010008F3
:1000B00009590008F7010008F7010008F7010008D6
:1000C000F7010008F7010008F7010008F701000830
:1000D000F7010008F7010008F7010008F701000820
:1000E000F7010008F7010008F7010008F701000810
:1000F000F7010008F7010008F7010008F701000800
:10010000F7010008F7010008F7010008F7010008EF
:10011000155A0008F7010008F7010008F701000868
:10012000F7010008F7010008F7010008F7010008CF
:10013000DFF80CD001F04EF80048004779A5000820
:1001400068940020224B19680868B0E8F00F80F32B
:100150000988BFF36F8F4FF0000080F311884EF0D5
:100160000D0E70470000000006480068006880F32C
:10017000088862B661B6BFF34F8FBFF36F8F00DFA1
:1001800000BF00BF08ED00E0EFF30980BFF36F8F01
:100190000F4B1A6820E9F00F106008B54FF05000BF
:1001A00080F31188BFF34F8FBFF36F8F0CF098FD72
:1001B0004FF0000080F31188BDE808401968086816
:1001C000B0E8F00F80F30988BFF36F8F704700BF6E
:1001D00028000020EFF305807047000006488047A4
:1001E00006480047FEE7FEE7FEE7FEE7FEE7FEE71C
:1001F000FEE7FEE7FEE7FEE7B5580008310100081C
:10020000202A04DB203A21FA02F00021704721FA6B
:1002100002F3D040C2F120029140084319467047D2
:100220000048704758EA000810B50446FFF7F8FF89
:100230000068005D00F0010010BD10B5431A934244
:1002400009D28318881803E010F8011D03F8011D76
:10025000521EF9D210BD40EA01039B0703D009E00A
:1002600008C9121F08C0042AFAD203E011F8013BA2
:1002700000F8013B521EF9D210BDD2B201E000F8E5
:10028000012B491EFBD270470022F6E710B513463A
:100290000A4604461946FFF7F0FF204610BD30B568
:1002A00005462A460B4612F8010B13F8014B08B11C
:1002B000A042F8D01CB1002802D06D1CF1E72846FE
:1002C00030BD10B5044604E00B7800F8013B03B1E3
:1002D000491C521EF8D2204610BDCAB2401E10F86A
:1002E000011F8A4202D00029F9D100207047421C28
:1002F00010F8011B0029FBD1801A704710B50022AD
:1003000000E0521C835C8C5CA34201D1002BF8D12D
:10031000D8B2E1B2401A10BD30B504460020034601
:1003200000E05B1C934203D2E05CCD5C401BF8D044
:1003300030BD034611F8012B00F8012B002AF9D13A
:100340001846704730B505460020034600E05B1CA8
:10035000934205D2EC5CC85C201A01D1002CF6D186
:1003600030BD0246C9B200E0401C0378002BFBD12F
:1003700002E003788B4203D0401E9042F9D2002065
:10038000704700000FB400B58DB010A909900B9014
:1003900000914FF0FF300A9000200C900548069025
:1003A000054807906A4609A80F9900F0D1FC0DB0E6
:1003B0005DF814FB6D0D00088B0D00082DE9FF5F43
:1003C0001D464FF0FF3BD5E9014691465F464FF091
:1003D0000008A9697F1C01988847296A82468847D6
:1003E0000028F6D1BAF1FF3F0CD024F4C064002EEF
:1003F00019DD600614D5BAF12B0F09D0BAF12D0F13
:100400000ED103E0584604B0BDE8F09F44F4806488
:10041000A9697F1C01988847761E8246002E02DD5E
:10042000BAF1300F03D0B9F1000F26D032E0A9693C
:10043000761E44F400747F1C019888478246002E83
:1004400005DDBAF1780F06D0BAF1580F03D0B9F133
:10045000000F10D01EE0B9F1000F02D0B9F1100F5B
:1004600018D1A969761E24F400747F1C019888476E
:100470008246102002E0082000E00A20814609E0C0
:1004800008FB0908A969761E44F400747F1C0198D2
:1004900088478246002E05DD4946504600F043FC61
:1004A0000028EDDAE96901988847A00502D46FF0C9
:1004B0000100A8E7E00725D1600613D5600502D545
:1004C000C8F1000000E0404629680A1D2A6009685A
:1004D000220501D5087015E0220701D5088011E03A
:1004E00008600FE02868011D29600068210502D519
:1004F00080F8008006E0210702D5A0F8008001E026
:10050000C0F8008038467EE72DE9FF4F087883B0B9
:100510009946FF2805D0491C2D2804D0002400202E
:1005200008E000200BE00124F9E700EB800003EB7A
:100530004000491C0B78FF2BF7D104B14042002347
:100540000293147819461D462D2C01D02B2C04D172
:10055000521C2D2C13D000240294AA461478FF2C90
:100560000FD00A25A3FB057801FB05814FF0000C95
:1005700003FB0C11521CE3194AEB0101EEE70124C5
:10058000EAE7814453EA010002D019F5C87F06DA90
:1005900003980021C0E9001107B0BDE8F08F0025E5
:1005A000AE4E2F46DFF8B882184600F0D7FDCDE9F1
:1005B0000001B9F1000002DAC9F1000400E00446CC
:1005C0000023A74A1AEB030B42EB045A12E0E007A0
:1005D00007D02A4633463846414600F06EFA0746B1
:1005E00088462A4633461046194600F066FA054604
:1005F0000E466410002CEAD1DDE90001B9F1000FCC
:100600005A46534606DA00F03AFD3A46434600F0B1
:1006100036FD05E000F051FA3A46434600F04DFA47
:10062000029A0AB181F00041039AC2E90001B3E7DE
:100630002DE9FF4F1F468DB0D7E901464FF0FF3837
:100640002E2045464FF000090B90B9696D1C0E989D
:100650008847396A824688470028F6D1BAF1FF3FB9
:100660000AD024F4D064002E11DDBAF12B0F08D08B
:10067000BAF12D0F0BD102E0404611B08DE744F4E2
:100680008064B9696D1C0E9888478246761E69465B
:10069000600501D52D2000E02B208DF8000001F130
:1006A000010B0DF1200809E0B9696D1C0E9888470F
:1006B00082460F9844F40074761E0560002E02DD19
:1006C000BAF1300FF0D00B998A453ED144F0800446
:1006D00006E00F99681CA9F1010944F40074086050
:1006E000B9696D1C761E0E98884782463028F0D076
:1006F0002BE00B998A4505D1200603D444F08004F1
:10070000761E18E0504606F015FC08B30DF11301F3
:10071000761E44F400748B4508D2AAF130000BF821
:10072000010B200607D5A9F1010003E0200602D441
:1007300009F101008146A00502D50F99681C0860E7
:10074000B9696D1C0E9888478246002ED1DC53E0B3
:10075000002E51DDBAF1650F02D0BAF1450F4BD131
:10076000A00549D5B9696D1C24F44074761E0E9815
:1007700088478246002E0CDD2B2804D0BAF12D0FBD
:1007800007D144F48074B9696D1C0E98884782467D
:10079000761EE00501D52D2100E02B2108F8011B74
:1007A000CDF82C8021E00DF12901761E44F400746F
:1007B00088450CD2AAF1300010F0FF0088F8000044
:1007C00002D10B99884509D908F1010806E0E00536
:1007D00001D5244801E042F20F708146B9696D1CD1
:1007E0000E98884782460F980560002E04DD50461B
:1007F00006F0A0FB0028D6D1F9690E988847FF20A3
:100800008BF8000088F800000020069007904B4607
:100810006A4608A906A8FFF777FEA00502D46FF084
:1008200001002AE714F0240F0AD0E00714D1DDE913
:1008300006123868031D3B600068C0E900120BE037
:10084000DDE9060100F0EBF90146E00704D1386864
:10085000021D3A600068016028460EE7000014405F
:100860000000F03FF1D8FFFF2DE9F04791460F4619
:1008700080460446002614F8015B2DB1FFF7D0FC3A
:100880000068405DC007F6D12B2D02D02D2D18D069
:10089000641E4A463946204600F088FA27B1396876
:1008A000A14201D1C7F8008071054FF002040BD5B9
:1008B0004042002803DD05F09DFC0460A007BDE870
:1008C000F08746F48066E4E70028F8DA05F092FC49
:1008D00004606FF00040F2E72DE9F05F93460F46A9
:1008E00080460446002605F085FCD0F8009082463C
:1008F00014F8015B2DB1FFF793FC0068405DC00761
:10090000F6D12B2D02D02D2D1AD0641E0021CAF84D
:1009100000105A463946204600F048FA014627B1F1
:100920003868A04201D1C7F80080DAF80000022838
:1009300009D0CAF80090700505D54842BDE8F09F7F
:1009400046F48066E2E70846F8E700F07EBA00F079
:10095000C4BA70B5064605F04DFC046805460A2287
:1009600000213046FFF780FF2C6070BD2DE9FE4F5F
:10097000804681EA0300C00F0C46009021F0004140
:1009800023F00045B8EB0200A94105D240462146BC
:1009900090461C460B46024623F00040104347D0C9
:1009A000270DC7F30A00C3F30A510290401A0190C1
:1009B00040286BDAC3F3130040F4801B0098924682
:1009C00020B10023D2EB030A63EB0B0B01985946CD
:1009D000C0F14002504600F085F906460D465046EB
:1009E0005946019A00F08DF910EB0800614100248E
:1009F00087EA115284EAE7731A4340D0009A62B33F
:100A0000019A012A4FEA075215DC001B61EB020133
:100A10004FF0004202EA0752CDE90042001C41F5C6
:100A2000801132462B4600F0DCFA03B0BDE8F08FAF
:100A300040462146F9E7001B61EB0201001C41F52D
:100A4000801300185B412018A2F5001747EB030143
:100A500040EAD570B6196D4111E06D084FEA3606CF
:100A600045EAC0754FEA0752001B61EB0201001C0A
:100A700041F5801149084FEA3000001951413246D2
:100A80002B4603B0BDE8F04F00F09CBA009801225D
:100A900040000023D0EB020263EBE0730098214694
:100AA0004FEAE074B8EB000061EB0401E9E783F082
:100AB00000435BE781F0004158E72DE9FE4F81EAF2
:100AC000030404F0004421F0004100944FF0000BB7
:100AD00023F0004350EA01045ED052EA03045BD0E5
:100AE000C3F30A54C1F30A552C44A4F2F33401941D
:100AF000A0FB0254C1F3130141F48011C3F31303AB
:100B000043F4801301FB024400FB034E840A970A5E
:100B100044EA815447EA8357A4FB076802958D0A8B
:100B200005FB07854FEA932C04FB0C542705029D17
:100B30004FEA065847EA1637B5EB08056EEB070C87
:100B4000870E920E47EA811742EA8312A7FB020141
:100B5000B6EB0B0164EB00042B0D43EA0C335E187B
:100B600044EB1C50DA465146E7FB0201C5F313047F
:100B70004FEA0B3343EA14534FEA0432019C43EA31
:100B80000603A4F10C040294009CCDE900B400F02B
:100B900028FA03B0BDE8F08F00200146F9E770B5F0
:100BA00021F0004303430CD0C1F30A550024D5EBD8
:100BB000040564EB0403D617AD1AB34102DB002031
:100BC000014670BD201841EB025170BDC10F80EA93
:100BD000E0700844CA079623002100F0C5B90EB59D
:100BE00040F2334102910021CDE900110A460B4643
:100BF00000F0F7F903B000BD00F0004230F0004013
:100C00000AD0C10D01F56071C0F3160042EA01512E
:100C1000C20840071143704700200146704701F0A9
:100C2000004330B421F0004150EA010206D00A0D21
:100C3000A2F56072C1F31301002A02DC30BC00206F
:100C40007047440F44EAC104C100E01830BC00EB17
:100C5000C25000F080B930B50B460146002020227A
:100C6000012409E021FA02F59D4205D303FA02F5B9
:100C7000491B04FA02F52844151EA2F10102F1DC19
:100C800030BD2DE9F05F0546002092469B46884620
:100C90000646814640241BE02846414647462246F8
:100CA000FFF7AEFA53465A46C01A914110D3114687
:100CB0001846224600F016F82D1A67EB01084F4639
:100CC00022460120002100F00DF817EB00094E41EB
:100CD000201EA4F10104DFDC484631462A46434683
:100CE000BDE8F09F202A04DB203A00FA02F1002040
:100CF00070479140C2F1200320FA03F3194390405A
:100D00007047202A06DBCB17203A41FA02F043EA6B
:100D1000E07306E041FA02F3D040C2F120029140B4
:100D20000843194670473A2800D2303820F0200294
:100D3000412A01D3A2F13700884201D34FF0FF309E
:100D4000704700000268114413780160184670472C
:100D5000D1600449516104491162002111611146B9
:100D600000F04ABA450D000829020008426842B165
:100D7000016811F8013B23B1521EC0E90012184668
:100D800070470121C160881E704742685AB1C3682C
:100D9000016843B983688B4205D0491E521CC0E9E3
:100DA0000012002070474FF0FF3070472DE9F05FD0
:100DB00082460078002715468B460AF10104B946A1
:100DC000302801D09DB113E014F8010B01277828D9
:100DD00003D0582801D045B10AE00DB1102D07D13C
:100DE0000027102514F8010B02E0082500E00A2571
:100DF0000026B0460EE005FB080005FB06F10127C2
:100E000001EB10461FFA80F8B6F5803F00D3B946D3
:100E100014F8010B2946FFF786FF0028EBDABBF137
:100E2000000F05D00FB1641E00E05446CBF800401F
:100E3000B9F1000F06D005F0DDF902210160C81EEE
:100E4000BDE8F09F48EA0640FAE72DE9F0479146F1
:100E50000E4680460446002514F8017B2FB1FFF7AB
:100E6000DFF90068C05DC007F6D12B2F02D02D2F0F
:100E70001ED0641E4A463146204600F053FB26B180
:100E80003268A24201D1C6F800806A054FF0020420
:100E900018D50023D0EB030563EB01025D1B9341E2
:100EA00009DB0023D0EB030063EB0101BDE8F08711
:100EB00045F48065DEE705F09DF9046000204FF001
:100EC0000041F3E7021E71F10002EFDA05F092F93A
:100ED00004604FF0FF304108E8E72DE9F05F9346EA
:100EE0000F4680460446002605F084F9D0F80090AD
:100EF000824614F8015B2DB1FFF792F90068405D5E
:100F0000C007F6D12B2D02D02D2D1FD0641E00213D
:100F1000CAF800105A463946204600F003FB024644
:100F200027B13868A04201D1C7F80080DAF8000084
:100F300002280ED0CAF8009070050AD5002003469A
:100F4000D2EB000063EB0101BDE8F09F46F4806640
:100F5000DDE71046F8E70029A8BF7047401C4900AC
:100F600008BF20F00100704710B4B0FA80FC00FA0E
:100F70000CF050EA010404BF10BC704749B1CCF139
:100F8000200421FA04F411FA0CF118BF01212143C5
:100F90000843A3EB0C01CB1D4FEA00614FEA102080
:100FA00042BF002010BC704700EBC3501044002922
:100FB000A4BF10BC7047401C490008BF20F00100CE
:100FC00010BC704710B5141E73F1000408DA401C01
:100FD00041F1000192185B411A4301D120F0010058
:100FE00010BD2DE9F04D92469B4611B1B1FA81F248
:100FF00002E0B0FA80F220329046FFF773FE04461A
:101000000F4640EA0A0041EA0B0153465A4608439C
:1010100013D0114653EA010019D0C8F140025046DE
:10102000FFF7EEF805460E46504659464246FFF792
:1010300059FE084305D0012004E020463946BDE8AA
:10104000F08D0020054346EAE0762C4337430A98AA
:101050006305E40AA0EB08000022FD0A44EA4754B5
:101060000A3002D500200146E9E70105101969415F
:10107000DDE9084500196941BDE8F04DA2E72DE919
:10108000F04D81EA030404F0004B21F000451446C2
:101090004FF0000A23F0004150EA050220D054EA44
:1010A00001021DD0C5F30A570246C5F31303C1F36D
:1010B0001300C1F30A5640F4801543F48013A7EBE4
:1010C0000608101BD64608F2FD3873EB050002D364
:1010D00008F1010801E092185B41B8F1000F03DA52
:1010E00000200146BDE8F08D00204FF48011064637
:1010F00084460EE0171B73EB050705D3121B63EB49
:10110000050306434CEA010C49084FEA30009218E7
:101110005B4150EA0107EDD152EA030012D082EAA6
:10112000040083EA0501084305D0101BAB4106D239
:101130000122002306E000224FF0004302E06FF09E
:10114000010253101AEB06004CEB085110EB0A0099
:1011500041EB0B01BDE8F04DFFF734BF0EB540F297
:10116000334202920022CDE900221346FFF739FFF5
:1011700003B000BDC1F30A52C1F3130140F2FF33C3
:1011800041F480119A4202DA00200146704740F291
:1011900033439A42A2F2334202DC5242FFF730B8A4
:1011A000FFF7A0BD30B5041E71F1000404DB4FF061
:1011B0000044404264EB0101141E73F1000405DB9E
:1011C0001C464FF00043524263EB0403994208BFB0
:1011D000904230BD064C074D06E0E06840F0010348
:1011E00094E8070098471034AC42F6D3FEF7A4FF0A
:1011F0003CF200085CF200082DE9F34F8BB04FF091
:10120000000801F10C000C464FF0010B46460DF1B1
:10121000080A01906269012101989047051E2DD0AE
:10122000252D2CD0216A8847C0B16269012101981F
:101230009047216A88470028F7D1411E62690198CA
:10124000904700E0761CA1690B988847216A88477F
:101250000028F7D1E1690B988847DBE7A1690B9873
:1012600088470746A84201D1761CD3E7E1690B986D
:1012700088477F1C02D1B8F1000F6FD046E10027EC
:1012800062693D463946019890472A2804D162692F
:101290000121019890470125DFF8849262690121BC
:1012A00001989047A0F130010A290AD24F45E5DCA8
:1012B00007EB870100EB4107303FDFD445F0100515
:1012C000ECE7E90601D46FF000476C280AD04C28FF
:1012D00014D0682815D06A280DD074281CD07A281C
:1012E0001AD01DE062690121019890476C2802D054
:1012F00045F0040514E045F002050DE045F0200539
:101300000AE06269012101989047682802D045F0FF
:10131000080505E045F400656269012101989047E0
:10132000C4E9015765283DD019DC58287AD00CDC77
:10133000452837D004DC252826D0412831D131E09A
:1013400046282FD047282CD12CE05B2877D0612865
:1013500028D063287CD0642823D15AE0D0E06F28BD
:1013600048D008DC66281DD067281BD0692821D00A
:101370006E2816D127E0702845D0732868D07528CC
:1013800047D078280DD14DE0A1690B9888470546D4
:1013900025283FF469AFE1690B9888476D1C3FF43D
:1013A0006AAFB3E023466A466FF001000B99FFF77E
:1013B0003FF99EE045F040006060A80723464FF0EB
:1013C000000236D43EE0E8077FF447AF2068011DF5
:1013D00021600068290501D506701BE7290701D5A2
:1013E000068017E7A90703D5F117C0E9006111E7E7
:1013F00006600FE745F040006060A80723464FF005
:10140000080216D41EE040F60E0125EA01006060D5
:1014100016E045F040006060A80723464FF00A023E
:1014200007D40FE045F040006060A80708D52346C8
:1014300010226FF001000B99AFF3008059E007E034
:10144000234610226FF001000B99FEF7B7FF50E022
:101450004FF000094F464B46632802D05B2806D068
:1014600040E0E80601D40120A06001273AE062696B
:101470000121019890475E2805D14FF0010962696A
:10148000494601989047216939B900210A465346D7
:1014900043F82120491C0829FADBB0B3216969B956
:1014A000C11700EBD16253110AEB830122F01F0236
:1014B000821A01200B68904003430B60626901218E
:1014C000019890475D28E8D1B9F1000F09D00020BC
:1014D000514651F82020D24341F82020401C0828D2
:1014E000F7DB02AB224600976FF001000B99AFF3D8
:1014F000008000280CDA401C08D1BBF1000F05D099
:101500004FF0FF300DB0BDE8F08FFFE74046F9E740
:10151000E90701D108F1010806444FF0000B79E614
:10152000CCCCCC0C2DE9F74F4FF00009009C1546B0
:10153000CA4614F8010B302801D0ADB115E014F8FB
:10154000010B4FF00109782803D0582801D04DB184
:101550000BE00DB1102D08D14FF00009102514F843
:10156000010B02E0082500E00A2500273E46B846A8
:101570004FEAE57B16E0A5FB07230BFB073105FBD4
:10158000080005FB0616030CD71846F100061FFAE3
:1015900080F8381E4FF0010976F5803000D3CA4636
:1015A00014F8010B2946FFF7BEFB0028E3DA019887
:1015B00038B1B9F1000F01D0641E00E0009C019821
:1015C0000460BAF1000F08D004F014FE022101609B
:1015D000C81E014603B0BDE8F08F310441EA17414F
:1015E00048EA0740F6E770B58C1810F8015B15F073
:1015F000070301D110F8013B2A1106D110F8012B85
:1016000003E010F8016B01F8016B5B1EF9D12B07A9
:1016100005D40023521E0DD401F8013BFAE710F85F
:10162000013BCB1A921C03E013F8015B01F8015B4C
:10163000521EF9D5A142D8D3002070BD70B5044622
:1016400000688168C943C9071CD1816821F0010184
:10165000816000F029FC05460FE000F025FC401BEE
:1016600002280AD9A06A40F01000A062E06A40F0A7
:101670000100E0624FF0FF3070BD20688068C04319
:10168000C007EAD0002070BDF8B5002604460096D9
:1016900000688168C943C90728D0816841F0010109
:1016A0008160134813490068B0FBF1F000E0401E70
:1016B00000900028FBD100F0F7FB054611E000F098
:1016C000F3FB401B02280CD9A06A40F01000A06276
:1016D000E06A40F00100E06284F824604FF0FF30DF
:1016E000F8BD20688068C043C007E8D10020F8BD7D
:1016F0001800002040420F0003F0A0BD10B500F01C
:1017000017F803F0EBFC03F01DFD03F03FFD03F0C1
:10171000B5FDBDE8104003F05DBDFEE708B5002152
:101720000091814201D2491CFAE708BD70470000D0
:101730002DE9F041384886B0816941F004018161AA
:10174000816901F004010491816941F0080181611E
:10175000816901F008010491816941F01001816102
:10176000816901F010010491816941F020018161DA
:10177000816901F020010491816941F0400181619A
:101780008069264E00F0400004900122032130467B
:1017900000F062FB0327012500240097CDE90154E6
:1017A0006946304600F062FA1D4E01223021304673
:1017B00000F052FB3020CDE9000569460294304626
:1017C00000F054FA4FF4F050CDE90004DFF85480F3
:1017D00069464046029400F049FA00224021304612
:1017E00000F03AFB4020CDE90005694602943046FE
:1017F00000F03CFA4EF2801600223146404600F0DE
:101800002BFB03970096CDE901546946404600F052
:101810002DFA06B0BDE8F08100100240000C014036
:10182000001001400018014070B50A4D4FF480745B
:1018300000222146284600F00FFB1420FFF76EFF20
:1018400001222146284600F007FBBDE87040142025
:10185000FFF764BF0018014010B50446064800F0C9
:101860008FF9C82000F0FEF9034800F0C5F8C0F574
:101870007A604008206010BD740300202DE9F0411B
:1018800005460F4616464FF04044104604F0BDF89A
:1018900044EA0074384604F0B8F844EA8064284604
:1018A00004F0B3F844EA006040EA064040EA072446
:1018B0002C43104E0025002C01DA012200E000220A
:1018C0008021304600F0C8FA6400FFF7ADFF6D1CC0
:1018D000EDB2202DEFD300228021304600F0BCFA7B
:1018E0000024FFF7A1FF641CE4B2202CF9D3BDE86B
:1018F000F081000000180140F8B50023009390F833
:1019000024201C46012A12D0012280F824204A6893
:101910001F26072A0DD205686F6B521E02EB82024A
:101920009640B7430E68964037436F6319E0022034
:10193000F8BD05680D2A0AD22F6BD21F02EB820276
:101940009640B7430E68964037432F6309E0EF6A2D
:101950000D3A02EB82029640B7430E689640374339
:10196000EF620A68072605680A2A0AD3EF680A3A6E
:1019700002EB42029640B7438E6896403743EF60D1
:1019800008E02F6902EB42029640B7438E6896400A
:1019900037432F610A68102A01D0112A21D1134D33
:1019A0000268AA4217D195682D021AD4956845F4A9
:1019B000000595600968102913D10D490D4A096881
:1019C000B1FBF2F101EB8101490000E0491E0091F9
:1019D0000029FBD105E0816A41F0200181624FF0CE
:1019E000FF3380F824401846F8BD00000024014071
:1019F0001800002040420F000068C06C70470000D3
:101A00002DE9F04704004FF000054FF0FF3614D0E9
:101A1000A06AA94630B9C4F82C9084F824902046D6
:101A200000F082F82046FFF709FEA16AC90600D43B
:101A300020B1A06A40F01000A0626BE0A16A21F41E
:101A4000885141F00201A162334923688B42E16968
:101A500004D1B1F5402F01D14FF40021E7684FF4D4
:101A6000807C41EA470261680A43A168614508D069
:101A7000012906D00021D4F81480B8F1010F02D05A
:101A80000AE06146F7E7C7B1A76A47F02007A762F7
:101A9000E76A47F00107E7625F6827F469470F4389
:101AA0005F6021688B681D4F3B4013438B60A168CA
:101AB00061450BD0012909D00CE0DFF86480A769EB
:101AC00008EB47370F4347F40061E5E7218A0D052E
:101AD000A5F580152168CB6A23F470032B43CB62F4
:101AE000216889680F4B1940914209D1C4F82C90A4
:101AF000A16A21F0020141F00101A162BDE8F08775
:101B0000A06A20F0020040F01000A062E06A40F0FD
:101B10000100E0623046F1E7003C0140FDF7E1FFE3
:101B200000E0FFFFFE0E1FFF00B585B00021009111
:101B300001910291039100680E49884218D10E4824
:101B4000816941F400418161816901F4004104919E
:101B5000816941F0100181618069694600F01000DF
:101B600004900120009003200190044800F07EF8CA
:101B700005B000BD003C01400010024000100140D3
:101B800070B5044690F8240001280DD0012084F897
:101B900024002046FFF778FD01004FF0000205D039
:101BA00084F82420084670BD022070BDA06A40F26F
:101BB0000123984340F48070A0621F4D20681F4BA2
:101BC000A84218D11E6816F4702F14D0A66A46F4E5
:101BD0008016A6621E68760505D5A66A26F400560C
:101BE00046F48056A662A66AF6040AD5E66A26F08E
:101BF0000606E66206E0A66A26F48016A662466835
:101C0000E9E7E26284F824206FF0020202602068B3
:101C10008268C2F34242072A05D1A84208D11A6855
:101C200012F4702F04D0826842F480128260B9E707
:101C3000826842F4A002F9E7002801400424014030
:101C400070B5044600F030F90546601C02D0044827
:101C50000078044400F028F9401BA042FAD370BD7C
:101C60007C000020FFF7ECBF0AF082BE2DE9F84FA0
:101C7000DFF8BC91002309F1040A0AF1040B1C46A9
:101C80004FF00F080BF1040E01270A68A7403A40F5
:101C9000BA4272D1DFF89CC14D68A5EB0C066545D0
:101CA0002BD00DDC032D34D005DC35B3012D19D03C
:101CB000022D2FD11BE0112D16D0122D2AD119E0A3
:101CC000B6F5881F19D006DCB6F5803F15D0B6F5FD
:101CD000801F1FD111E0B6F5001F0ED0B6F5041F0E
:101CE00018D10AE0CB6815E0CB681B1D12E0CB6869
:101CF00008330FE0CB680C330CE08B682BB1012B61
:101D00004FF0080303D0476104E0042302E00761B9
:101D100000E00023FF2A01D8064601E000F1040696
:101D20004FEA840501D9A5F12005376808FA05FCBA
:101D300027EA0C0703FA05F547EA050737604D68FF
:101D4000ED006ED53C4DAE6946F00106AE61AD6961
:101D500024F0030605F001050095384D7719BE689B
:101D6000A5072D0F08FA05FC26EA0C06DFF8D0C0FF
:101D7000604503D14FF0000C25E052E0DFF8C4C00D
:101D8000604502D14FF0010C1DE0DFF8BCC060459A
:101D900002D14FF0020C16E0DFF8B0C0604502D16E
:101DA0004FF0030C0FE0DFF8A8C0604502D14FF000
:101DB000040C08E0DFF89CC0604502D14FF0050C30
:101DC00001E04FF0060C0CFA05FC4CEA060CC7F8D3
:101DD00008C04D68D9F80060ED034D4601D51643A3
:101DE00000E096432E604D68DAF80060AD0355467A
:101DF00001D5164300E096432E604D68DBF8006085
:101E0000ED025D4601D5164300E096432E604D6815
:101E1000DEF80060AD02754601D5164300E096433A
:101E20002E60641C102CFFF42FAFBDE8F88F00006B
:101E300000040140000011100010024000000140A9
:101E400000080140000C0140001001400014014056
:101E500000180140001C01400AB1016170470904EB
:101E6000FBE7000070B50025040017D0B621FEF78F
:101E70000BFA0A220B492046FEF723FA09494022B1
:101E80000B3104F10B00FEF71CFA064918224C3105
:101E900004F19D00FEF715FA284670BD6FF063004F
:101EA00070BD000088000020014880687047000075
:101EB0007C00002001480078704700007C00002072
:101EC000FFF7F2BF70B504004FF0FF361BD094F857
:101ED0003D00002520B984F83C50204600F03CFA33
:101EE000242084F83D002068016821F00101016090
:101EF00000F0ECFC404A6168914201D83F4900E0A3
:101F00003F49884201D2304670BD3E492368B0FB4C
:101F1000F1F159606368934206D94FF496735943BF
:101F20004FF47A73B1FBF3F12368491C19626168BD
:101F3000914210D84900401EB0FBF1F2521CC2F38E
:101F40000B02042A01D2042022E0B0FBF1F0401C75
:101F5000C0F30B001CE0A268CAB301EBC10303EBA2
:101F60000116431EB3FBF6F35B1C43F480431B05D1
:101F700036D06AB301EBC10202EB0111401EB0FB87
:101F8000F1F0401CC0F30B0040F4804040F40040EE
:101F90002168C861D4E90701084321680860D4E9D1
:101FA0000310084321688860D4E9050108432168CB
:101FB000C8602068016841F00101016025642020AB
:101FC00084F83D00256384F83E50002070BD00E099
:101FD00008E001EB4106431EB3FBF6F35B1CC6E7CA
:101FE0000120D5E701EB4101401EB0FBF1F0401CA0
:101FF000C0F30B00CAE70000A086010080841E0029
:1020000000093D0040420F002DE9F84F1F46904661
:102010008A460446DDF82890FFF746FF054694F807
:102020003D00202870D119230122794920460095CE
:1020300001F0CEFA0028F5D194F83C00012863D0D5
:10204000012084F83C0020680168C90703D10168B9
:1020500041F0010101602068016821F40061016024
:10206000222084F83D00102084F83E0000262664DB
:10207000C4F8248067856748E062608D20852B4620
:102080004A465146204601F0BBF94FF0FF3828B1CF
:10209000206C84F83C60042850D073E0208D5E4FA3
:1020A00068B1012814D00228206801681ED041F4CC
:1020B0008061016020684169806900909AE0206831
:1020C000416981690091016841F40071016091E00A
:1020D0002068016821F48061016072B6206841695E
:1020E00081690091016841F400710AE041F40061E6
:1020F000016072B62068416981690091016821F42C
:102100008061016062B675E080E003284FD8012845
:102110000BD002284B464FF000023946204600956E
:1021200011D001F055FA68BB12E02A464946204614
:1021300001F0C1FA28B1206C202823D04046BDE828
:10214000F88F20684BE001F043FAD8B972B61BE073
:102150002068016821F48061016072B6206801691D
:10216000606A421C62620170208D401E2085608D75
:10217000401E60854B46002239462046009501F0FE
:1021800027FA08B10320DAE72068016841F40071FA
:10219000016020680169606A421C62620170208DE2
:1021A000401E2085608D401E608562B6C9E72A46C4
:1021B0004946204601F07FFA0028BCD12068016919
:1021C000606A421C62620170208D401E2085608D15
:1021D000401E608520684169C94349070AD40169E6
:1021E000606A421C62620170208D401E2085608DF5
:1021F000401E6085208D002887D1202084F83D0076
:1022000084F83E6084F83C60002098E7022096E75E
:10221000020010000000FFFF040001002DE9F84F4C
:102220001F4690468A460446DDF82890FFF73CFE9C
:10223000054694F83D0020287ED119230122444907
:102240002046009501F0C4F900287FD194F83C00A5
:1022500001287BD0012084F83C0020680168C90770
:1022600003D1016841F0010101602068016821F497
:1022700000610160212084F83D00102084F83E00B8
:1022800000262664C4F8248067853248E062608DA9
:1022900020852B464A465146204601F023F9771EF9
:1022A00028B1206C84F83C6004284DD00DE02068F3
:1022B00041698069009030E02A464946204601F095
:1022C0002CFA28B1206C042839D00320BDE8F88FFF
:1022D000606A411C6162216800780861608D401E5F
:1022E0006085208D401E80B2208521684A69D243D6
:1022F00052070BD450B1606A421C626200780861D8
:10230000608D401E6085208D401E20852A464946EE
:10231000204601F035F90028D4D1208D0028CBD1FA
:1023200054F83D0B016841F400710160202004F86D
:102330001E09E677667700E008E00020C6E720681F
:10234000016841F4007101603846BFE70220BDE733
:10235000020010000000FFFF30B51A4D0168122284
:1023600003231948194C85B0A94217D11902CDE9A8
:10237000001203936946FFF779FCE06940F400100E
:10238000E061E069124900F400100490486840F0F0
:10239000E06040F00200486005B030BD0D4DA9423C
:1023A000FAD14FF44061CDE9001203936946FFF77B
:1023B0005DFCE06940F48000E061E06900F48000C9
:1023C0000490E9E700540040000C01400010024076
:1023D0000000014000580040024881680278114422
:1023E000816070477C000020074810B5016841F00B
:1023F00010010160032000F007F9002000F006F84A
:1024000000F040F8002010BD0020024000B5014659
:1024100087B00022192000F0D7F8192000F0C8F882
:102420001348816941F400618161806905A900F464
:1024300000600690684600F023FA00F057FA0D4954
:102440000D4AB0FBF1F10D48491E0260416040F2B7
:10245000E7320021C0E90321816000F060FC18B17F
:102460004FF0FF3007B000BD044800F091FCF9E7E1
:102470000010024040420F00002C0140CC0100201F
:1024800009F05CBB1C4808B5816941F0010181611C
:10249000806900F001000090032000F0B5F80022F0
:1024A00011466FF00B0000F08FF8002211466FF01C
:1024B0000A0000F089F8002211466FF0090000F0D0
:1024C00083F800221146501F00F07EF800221146CA
:1024D000101F00F079F800220F21901E00F074F810
:1024E00000220F21501E00F06FF80449486820F0C8
:1024F000E060486008BD000000100240000001409C
:10250000002008F097BE000010B508F096FE0028E5
:1025100005D00146BDE8104001A000F087B810BD0D
:1025200048414C5F4D7574657844657374726F797A
:10253000206572722C206572723A25640A0D0000C3
:1025400010B54FF0FF3108F0ADFE002805D0014670
:10255000BDE8104001A000F069B810BD48414C5FD3
:102560004D757465784C6F636B206572722C2065B5
:1025700072723A25640A0D0010B508F06BFE00284F
:1025800005D00146BDE8104001A000F04FB810BDD5
:1025900048414C5F4D75746578556E6C6F636B2068
:1025A0006572722C206572723A25640A0D00000073
:1025B00000F01F02012191404009800000F1E0205D
:1025C000C0F8001170470000F0B40E4B1B68C3F355
:1025D0000223C3F10704042C00D904241D1D072D78
:1025E00001D2002300E0DB1E012606FA04F56D1E71
:1025F0000D409D409E40761E164045EA0601F0BC07
:1026000002F07DBE0CED00E0064A00F00701106804
:102610004FF6FF03184040EA0120034908431060C9
:10262000704700000CED00E00000FA050FB410B593
:1026300003A9029803F0C0FD0248002000BF10BCAF
:102640005DF814FB0C0000202DE9F84304460078E7
:10265000344FC00752D0F8690025C00008D4F8698B
:1026600040F08050F861F869012500F0805000903A
:102670002D480168C90511D40168804641F4807174
:102680000160FFF711FC064604E0FFF70DFC801B1C
:10269000642822D8D8F80000C005F6D5386A10F4AE
:1026A000407020D0A18801F4407181421BD0386A6B
:1026B0001E49012220F440700A6000220A6038623C
:1026C000C00710D0FFF7F0FB064641F2883807E05C
:1026D000FFF7EAFB811B414502D90320BDE8F883DF
:1026E000386A8007F4D5386A616820F4407008437E
:1026F00038621DB1F86920F08050F86120788007B9
:1027000005D57868A16820F44040084378602078B7
:10271000C00605D57868616920F4800008437860B8
:102720000020DBE7001002400070004040044242FD
:102730002DE9F047DFF8389104460E46D9F800003D
:102740004FF0FF3800F00700B0420CD2D9F800106B
:1027500021F007013143C9F80010D9F8000000F05A
:102760000700B04260D12078424F800705D57868D5
:10277000A16820F0F000084378602078C00742D0BC
:102780006068012816D03968022816D08907002908
:102790004ADA796821F0030101437960FFF784FB8D
:1027A0000546606841F2883101280ED002288A4629
:1027B00017D024E039688903E9E78901E7E7FFF7E3
:1027C00073FB411B514501D916E08A467868C0F376
:1027D00081000128F3D116E0FFF766FB411B51454C
:1027E0000AD87868C0F381000228F5D10BE0FFF722
:1027F0005BFB411B514502D90320BDE8F087786897
:1028000010F00C0FF3D1D9F80010484601F0070181
:10281000B1420BD9016821F0070131430160006822
:1028200000F00700B04201D04046E6E720784007BC
:1028300005D57868E16820F4E06008437860207886
:10284000000706D57868216920F4605040EAC1008D
:10285000786000F05BF87968074AC1F30311515CB6
:10286000C840064908600020FFF7D0FD0020C4E7FB
:102870000020024000100240D0DE000818000020B6
:102880000F2202600C4A536803F00303436053684D
:1028900003F0F0038360536803F4E063C36052689D
:1028A0004FF4E06303EAD20202610448006800F0DA
:1028B000070008607047000000100240002002403E
:1028C00001480068704700001800002004480549CE
:1028D00000684968044AC1F30221515CC84070474E
:1028E0001800002000100240E0DE000804480549FE
:1028F00000684968044AC1F3C221515CC84070476E
:102900001800002000100240E0DE000812A085B090
:102910000FC88DE80F0014A0144B0068049059688C
:10292000134801F00C02042A10D0082A0ED1C1F37A
:102930008342C9031DF802000AD5596804AAC1F3ED
:102940004041515C0A4A5043B0FBF1F005B070477A
:1029500008494843FAE7000002030405060708098E
:102960000A0B0C0D0E0F10100102000000100240A7
:1029700000127A0000093D002DE9F84F0446007866
:10298000B74DC00747D06868C0F38100012807D061
:102990006868C0F38100022809D16868C00306D5C1
:1029A0002868800337D5606800286ED033E06068FF
:1029B000B0F5803F0BD010B1B0F5A02F11D0286832
:1029C00020F480302860286820F4802002E0286805
:1029D00040F480302860606888B1FFF765FA0646E9
:1029E00009E0286840F480202860F0E7FFF75CFAEF
:1029F000801B642873D828688003F7D50BE0FFF7A5
:102A000053FA064604E0FFF74FFA801B6428F1D81A
:102A100028688003F7D42078DFF8488280074FF0D9
:102A2000010A4FF0000939D5686810F00C0F07D083
:102A30006868C0F38100022809D16868C00306D421
:102A40002868800713D5206901281ED10FE020696E
:102A5000A8B1C8F800A0FFF727FA064604E0FFF780
:102A600023FA801B0228C5D828688007F7D5286874
:102A7000616920F0F80040EAC10028600EE0C8F863
:102A80000090FFF711FA064605E0E5E0FFF70CFAC3
:102A9000801B022823D828688007F7D420780007F5
:102AA0002CD57148A169D9B1C0F800A0FFF7FCF995
:102AB000064604E0FFF7F8F9801B02280FD8686A81
:102AC0008007F7D569484FF4FA510068B0FBF1F080
:102AD000009000BF0098411E0091FAD20EE07CE009
:102AE000C0F80090FFF7E0F9064604E0FFF7DCF9D4
:102AF000801B022871D8686A8007F7D420784007C5
:102B00005BD5E8690027C00008D4E86940F0805030
:102B1000E861E869012700F080500090544801689E
:102B2000C90511D40168834641F480710160FFF743
:102B3000BBF9064604E0FFF7B7F9801B64284CD8C0
:102B4000DBF80000C005F6D5E06801280AD008B11E
:102B5000052813D0286A20F001002862286A20F096
:102B6000040002E0286A40F001002862E06841F2B7
:102B7000883B88B1FFF798F9064609E0286A40F0DB
:102B800004002862EEE7FFF78FF9811B59455BD8F7
:102B9000286A8007F7D50BE0FFF786F9064604E0C0
:102BA000FFF782F9811B59454ED8286A8007F7D470
:102BB0001FB1E86920F08050E861E069A8B3696856
:102BC000C1F38101022947D00228484606D0C8F83F
:102BD0006000FFF769F9044639E035E04746C8F878
:102BE0006000FFF761F9064604E0FFF75DF9801B1E
:102BF000022829D828688001F7D4206AB0F5803FE0
:102C000005D16868A16820F4003008436860D4E901
:102C100008010843696821F4741108436860C7F823
:102C200060A0FFF741F9044605E013E0FFF73CF927
:102C3000001B022808D828688001F7D50AE0FFF7B2
:102C400033F9001B022802D90320BDE8F88F286859
:102C50008001F4D40020F8E74FF0FF30F5E70000E2
:102C6000001002400000424280044242180000204E
:102C7000007000404FF0E0210428086903D020F0E4
:102C800004000861704740F00400FAE710B5401EE8
:102C9000B0F1807F01D3012010BD4FF0E0246061CE
:102CA0000F21601702F02BFB0020A061072020619C
:102CB000002010BD08F0B2BA0FB410B505AB049AED
:102CC00003F082FA10BC5DF814FB7047704730B512
:102CD00090F83C20012A20D0012380F83C300222C9
:102CE00080F83D200268546824F070045460026843
:102CF00054680D682C4354600268946824F0800482
:102D000094600268946849680C43946080F83D3090
:102D1000002180F83C10084630BD022030BD10B5BF
:102D2000040003D094F83D0018B108E04FF0FF30E4
:102D300010BD002084F83C00204600F00DF8022071
:102D400084F83D00211D206802F0E4FD012084F894
:102D50003D00002010BD000008B50068B0F1804FB4
:102D600012D10A48C16941F00101C161C069002264
:102D700000F00100009005211C20FFF725FCBDE8B4
:102D800008401C20FFF714BC08BD000000100240E2
:102D90000168CA6842F00102CA600068016841F037
:102DA000010101600020704770B5044690F83C00B6
:102DB000012817D0012584F83C50022084F83D00FA
:102DC0002068826822F0770222F47F4282600868DD
:102DD000502836D00DDC202858D005DC80B31028D0
:102DE00040D150E0022070BD302852D0402839D167
:102DF0003EE060282DD070280BD0B0F5805F03D066
:102E0000B0F5005F2ED110E02068816821F0070145
:102E100009E0CB68D1E90121206802F0C1FD2068FA
:102E2000816841F0770181601CE0CB68D1E9012124
:102E3000206802F0B5FD2068816841F48041F2E726
:102E40001EE0CA684968206802F0BCFD5021206875
:102E500006E0CA684968206802F0C5FD6021206864
:102E600002F0A8FD84F83D50002084F83C0070BDBD
:102E7000CA684968206802F0A5FD40212068EFE794
:102E800000212068ECE710212068E9E72021206874
:102E9000E6E730212068E3E7704770B50446006834
:102EA00001694FF00005C943890715D4C168C943BA
:102EB000890711D4E91E016101202077206880690B
:102EC0008007204602D0FFF7E7FF04E000F098F803
:102ED000204600F096F8257720680169C943490724
:102EE00017D4C168C943490713D46FF004010161C5
:102EF000022020772068806910F4407F204602D0AD
:102F0000FFF7CAFF04E000F07BF8204600F079F8F4
:102F1000257720680169C943090716D4C168C943E8
:102F2000090712D46FF0080101610420207720689E
:102F3000C0698007204602D0FFF7AEFF04E000F032
:102F40005FF8204600F05DF8257720680169C943E5
:102F5000C90617D4C168C943C90613D46FF010015C
:102F60000161082020772068C06910F4407F204666
:102F700002D0FFF791FF04E000F042F8204600F095
:102F800040F8257720680169C943C90708D1C1689D
:102F9000C943C90704D1891E0161204600F032F8F7
:102FA00020680169C943090609D4C168C9430906F3
:102FB00005D46FF0800101612046FFF786FE20688E
:102FC0000169C943490609D4C168C943490605D402
:102FD0006FF040010161204600F01EF82068016991
:102FE000C94389060BD4C168C943890607D46FF069
:102FF000200101612046BDE87040FFF767BE70BD4B
:103000007047704700680349884201D1FFF7E4B96F
:1030100070470000002C0140704770B50C46054613
:10302000FEF74EFF04EB4401C1EBC41100EBC100FD
:10303000286070BD70B50C460546FEF741FF204480
:10304000286070BD10B50446FEF73AFF2168814242
:1030500001D2012010BD002010BD00210160704789
:1030600070B5040004D094F83900002518B107E0C9
:103070004FF0FF3070BD84F83850204600F022F841
:10308000242084F839002068C16821F40051C1600F
:10309000204602F0D9FC2068016921F490410161C9
:1030A0002068416921F02A0141612068C16841F42A
:1030B0000051C160E563202084F8390084F83A00AB
:1030C000002070BD2DE9F04704460068544E0025ED
:1030D00054490222032386B04FF4007A4FF48069EA
:1030E000B04219D1886940F48040886188694E4CAB
:1030F00000F48040CDE90330CDE900A269462046C6
:10310000FEF7B4FDCDE90095694620460295FEF72D
:10311000ADFD06B0BDE8F087444FDFF81481454EA1
:10312000B8421ED1C86940F40030C861C869694618
:1031300000F4003004902020CDE9000203934046C3
:10314000FEF794FD4020CDE9000569464046029512
:10315000FEF78CFD706840F0E06040F008007060A1
:10316000D7E7354FB84231D1C86940F48020C861F3
:10317000C869694600F480200490B815CDE90002C2
:103180000120CDE902034046FEF770FDCDE900A520
:10319000694640460295FEF769FD706820F03000F0
:1031A00040F0E06040F030007060002205212720F0
:1031B000FFF70AFA2720FFF7FBF92068C16841F002
:1031C0002001C1606FF040003860A2E71B4EB042A2
:1031D0009FD1C86940F40020C861C869184E00F446
:1031E0000020CDE90330CDE9009269463046FEF774
:1031F0003DFDF014CDE90005694630460295FEF725
:1032000035FD002205213420FFF7DEF93420FFF7D9
:10321000CFF92068C16841F02001C16079E7000062
:103220000038014000100240000801400044004006
:10323000001401400000014000480040004C0040E4
:10324000001001402DE9F843044690F839001E466D
:1032500017460D46202851D1A5B19FB194F83800EA
:1032600001284BD0012084F838004FF00008C4F842
:103270003C80212084F83900FEF716FEA7848146A1
:10328000E78427E04FF0FF30BDE8F883E08C401E74
:10329000E084A0684B46B0F5805F4FF000024FF02D
:1032A00080012046009603D002F086FCE8B90DE0CC
:1032B00002F082FCC8B928882168C0F30800486081
:1032C000206908B16D1C05E0AD1C03E0216815F80C
:1032D000010B4860E08C0028D8D14B4600224021E9
:1032E0002046009602F068FC08B10320CCE72020BD
:1032F00084F8390084F838800020C5E70220C3E74D
:10330000FEE700002DE9FE4300222E4E0D460192FD
:103310000292010070684FF480544FF6FC772CD075
:10332000E3218DF80810012302AA8021B046009401
:10333000FEF774FF06460094032301AA8021D8F803
:103340000400FEF761FE40EA0604BDF8040040BA3E
:103350003840FDF744FC1C4A1C4BFDF7AEFB6FF0F8
:103360000F02FDF71CFC1A4A1A4BFDF7A0FBFDF7F4
:1033700056FC28602046BDE8FE83E5218DF8081044
:10338000012302AA8021B0460094FEF747FF0646BB
:103390000094032301AA8021D8F80400FEF734FE2C
:1033A00040EA0604BDF8040040BA384000EB400192
:1033B000C1EBC0106FF0050101EB1040FDF706FCFA
:1033C000D7E7000010000020D7A3703D0AF7654042
:1033D000CDCCCCCCCC6C474001684A69D243520575
:1033E0000CD46FF480624A6104210164002140F82A
:1033F000301F202242730173481E7047002070471F
:103400002DE9F84F0446C06A1D4693460F462168D1
:103410000A6842F480620A60042807D0012805D0B7
:1034200010F5803F02D0206B112804D1206801687C
:1034300041F4807101604FF001185B460022414663
:103440002046009500F0C4F8C8BB20694FF0FF3952
:1034500008F1010AB0F5804F12D00620216800EA79
:10346000D71646F0F00008612B465A4608F10701CE
:10347000204600F0DDF838B1206C04282FD01EE083
:10348000F8B240F001001FE02168F8B208612B4655
:103490005A465146204600F0CBF80028ECD120686F
:1034A000416981690091016841F4807101605B4666
:1034B000002241462046009500F08AF810B1032012
:1034C000BDE8F88F46F0F100216808612B465A46A6
:1034D0005146204600F0ACF80028CDD1F0E7484630
:1034E000EEE700002DE9F8430446C06A1E460D468B
:1034F0009046042807D0012805D010F5803F02D05F
:10350000206B122804D12068016841F480710160A9
:10351000134600224FF001112046009600F058F8A3
:10352000B0B920694FF0FF37B0F5804F13D00620B7
:10353000216800EAD51040F0F000086133464246A9
:103540000E49204600F074F840B1206C042812D0D7
:103550000320BDE8F88305F0FE0000E0E8B2216832
:103560000861064933464246891F204600F060F84C
:103570000028EAD1EDE73846EBE70000080001003B
:1035800070B516460D4604461BE02046FFF724FFA3
:1035900010B14FF0FF3070BD681C12D025B1FEF79E
:1035A00083FC801BA8420CD954F8400F40F0200047
:1035B00044F810090020206020216173207303204B
:1035C00070BD20684069C0434007DED4002070BD54
:1035D0002DE9F0471D4690460E460446C1F30747C5
:1035E000DDF8209012E0681C10D02DB1FEF75CFCD5
:1035F000A0EB0900A84209D9002044F8300F20218F
:103600006173A07320730320BDE8F0872068012F49
:103610000AD0806926EA00000004000C06D00020D1
:103620004045E0D00020EFE74069F3E70120F7E7ED
:103630002DE9F047984615460E4604464FF000091E
:103640004FF0200AC1F3074729E020684069C043D2
:10365000400513D42068016841F4007101602168BD
:103660006FF48060486104202064C4F8309084F8CE
:103670003DA084F83C90401FBDE8F087681C0ED048
:103680002DB1FEF711FCA0EB0800A84207D944F8C1
:10369000309F84F80DA084F80C900320ECE720689C
:1036A000012F06D0806926EA00000004000CE3D058
:1036B000CBE74069F7E72DE9F04116460D46044691
:1036C00000274FF0200821E04069C043C0060CD419
:1036D00021686FF0100048612764276384F83D80FB
:1036E00084F83C704011BDE8F08125B1FEF7DCFBA9
:1036F000801BA8420AD954F8400F40F0200044F83B
:10370000040984F8018027700320ECE720684169F0
:10371000C9434906D8D40020E5E770B516460D46E2
:1037200004461BE02046FFF757FE10B14FF0FF3074
:1037300070BD681C12D025B1FEF7B6FB801BA842F5
:103740000CD954F8400F40F0200044F81009002034
:103750002060202161732073032070BD20684069C0
:10376000C0430006DED4002070BD00007CB51C46BE
:103770000B460646DDE906011546CDE90001224665
:103780002946304603F0C4FA040004D00BA00323FA
:1037900040F27D1209E02946304604F071FA040037
:1037A00009D50EA003234FF4C172CDE900041449DA
:1037B000144801F05BFC20467CBD0000636F6E7313
:1037C000747275637420616374696F6E206A736FBD
:1037D0006E206661696C2C20256400007075626C37
:1037E00069736820616374696F6E20746F20636C05
:1037F0006F7564206661696C2C20256400000000F0
:1038000047E80008ACF000083EB5054606F04AFB64
:1038100000F10B0406F046FB034617A28A211D485F
:103820000094FFF749FA002801DB89280ED91AA273
:10383000CDE900208A21029103234FF4B572264975
:10384000264801F013FC6FF063003EBD2B46244A6E
:103850000021104807F0A6FA04000BD00D4821A162
:10386000CDE90010032340F2711202941A491B485B
:1038700001F0FCFB20463EBD247468696E672F642E
:103880006F776E2F616374696F6E2F25732F2573A9
:103890000000000031870020746F70696320636F3F
:1038A0006E74656E74206C656E677468206E6F74DC
:1038B00020656E6F7567682120636F6E74656E7426
:1038C0002073697A653A25642020627566207369E1
:1038D0007A653A256400000037E80008ACF000087B
:1038E000C96F000873756273637269626520746FD3
:1038F0007069633A202573206661696C65643A20BB
:1039000025642E00FEB515460E46041E6FF06407B2
:1039100008D085B1C6B102F07DFD002822D06FF439
:10392000CB70FEBD16A119A2CDE90021032302949C
:1039300040F2511210E015A11BA00091CDE9010247
:1039400003234FF4A97207E01AA010A1CDE90010DB
:10395000032340F2531202961849194801F086FBDE
:103960003846FEBD2068FEF7EBFD2A46314620466C
:1039700002F054FC05462068FEF7FEFD2846FEBD19
:103980007054656D706C617465000000496E7661FD
:103990006C696420617267756D656E742C20257387
:1039A000203D20257000000063616C6C6261636BD8
:1039B0000000000070416374696F6E0023E8000826
:1039C000ACF000083EB5054606F06CFA00F10B04B9
:1039D00006F068FA034617A28A211C480094FFF7F4
:1039E0006BF9002801DB89280ED919A2CDE9002046
:1039F0008A21029103234FF4EB722549254801F0F7
:103A000035FB6FF063003EBD2B46234A00210F4873
:103A100007F0C8F904000BD00C4820A1CDE9001034
:103A200003234FF4EF72029419491A4801F01EFB68
:103A300020463EBD247468696E672F646F776E2FD1
:103A40006576656E742F25732F257300A786002079
:103A5000746F70696320636F6E74656E74206C653B
:103A60006E677468206E6F7420656E6F756768216D
:103A700020636F6E74656E742073697A653A25648D
:103A800020206275662073697A653A25640000001B
:103A90000FE70008DCEF000885710008737562739A
:103AA000637269626520746F7069633A20257320C0
:103AB0006661696C65643A2025642E0002698A4358
:103AC000026170470069704702690A4302617047EA
:103AD0000EB500208DF8080002A807F029F958B1AA
:103AE00008A1CDE9001003234FF428720C490D48BA
:103AF00001F0BCFA00200EBD0B480078C0F3C000F6
:103B00000EBD0000476574206D717474207374617C
:103B10007465206661696C2C7265743A25640000D6
:103B20008DE10008A0ED00080C010020FEB50D4657
:103B30000646DDE9080142F210748DE813002946BB
:103B4000304602F06DF8040004D010A003234FF4B7
:103B5000F67213E015A0CDE90005002340F2EF1244
:103B60001649174801F082FA2946304604F010F948
:103B7000040009D013A003234FF4F972CDE9000427
:103B80000E490F4801F072FA2046FEBD636F6E7356
:103B90007472756374206576656E74206A736F6ED7
:103BA000206661696C2C202564000000706F7374BE
:103BB000206576656E743A25730000001EE70008E4
:103BC000DCEF00087075626C697368206576656E5D
:103BD0007420746F20636C6F7564206661696C2C4F
:103BE000202564002DE9F041C8B01E4690460F46DE
:103BF0006FF06404002842D0002F48D00446FFF73D
:103C000067FF002850D0E06800280CDA204608F052
:103C10002BFB002807DA2AA000900323E022314979
:103C2000314801F023FA4FF48075294603A8FCF7C8
:103C30002BFB3B462DA2294603A8FFF73DF829465A
:103C400005F014FA002817D1264943AF1A310FC9DD
:103C500087E80F004FF47A70B6FBF0F0C0B2009026
:103C600000234246042143A806F0F2F82B4603AA9B
:103C700043A9204608F00EFA48B0BDE8F08121A122
:103C800022A2CDE9002103230290D12206E026A042
:103C90001EA1CDE900100323D22202971149124838
:103CA00001F0E4F92046E7E723A000900323D722A0
:103CB0000C490D4801F0DAF96FF0CB00DCE70000A9
:103CC000537562637269626520247468696E672F38
:103CD000646F776E2F70726F706572747920666191
:103CE000696C2100E6E20008A0EE00087B22636C0C
:103CF00069656E74546F6B656E223A222573227D5E
:103D00000000000068616E646C650000496E7661B9
:103D10006C696420617267756D656E742C20257303
:103D2000203D20257000000070436C69656E74545E
:103D30006F6B656E0000000074656D706C6174657A
:103D400020697320646973636F6E6E656374656464
:103D500000000000FEB5050022D02A4C0020207192
:103D60002061A062E062A060204607F071FF48B1C8
:103D700025A1CDE90010032340F2D9222849294882
:103D800001F074F9204608F06FFAB8B126A000904F
:103D9000032340F2DF222249224801F067F90EE0B6
:103DA0002AA02CA1CDE90010032340F2CB220295DA
:103DB0001B491C4801F05AF90020FEBDE060204676
:103DC000FFF700FE48B12AA1CDE90010032340F21D
:103DD000EB221349134801F049F92046FFF714FD7F
:103DE000060009D028A0CDE90006032340F2F32203
:103DF0000B490C4801F03AF90120207130462C6043
:103E0000FEBD00001C82002074656D706C617465DD
:103E100020696E6974206572722C72633A256400A1
:103E200087E40008A0EE000853756263726962655A
:103E300020247468696E672F646F776E2F70726FBD
:103E40007065727479206661696C2100636C6965C4
:103E50006E740000496E76616C69642061726775EA
:103E60006D656E742C202573203D202570000000A8
:103E70006576656E7420696E6974206661696C652B
:103E8000643A202564000000616374696F6E2069E4
:103E90006E6974206661696C65643A20256400006F
:103EA0002DE9F04188B01E4690460C466FF064053F
:103EB00000282CD0002C33D00546FFF709FE00283F
:103EC0003CD0E86800280DDA284608F0CDF9002833
:103ED00008DA32A00090032340F2A722384939487B
:103EE00001F0C4F832464146204604F0EDF90700DF
:103EF00030D035A0CDE90007032340F2AD22304990
:103F0000304801F0B3F8384608B0BDE8F08137A179
:103F100038A2CDE90021032302904FF4267207E076
:103F20003BA034A1CDE90010032340F29922029472
:103F30002349244801F09AF82846E5E737A0009085
:103F4000032340F29E221E491E4801F08FF86FF0B5
:103F5000CB00D9E738A0CDE9000400234FF42C7240
:103F60001749184801F082F8154A03AF1C320FCAEE
:103F700087E80F0030684FF47A71B0FBF1F0C0B2FF
:103F8000002300901A46032103A805F061FF434671
:103F9000224603A9284608F07DF8B5E75375626309
:103FA0007269626520247468696E672F646F776E2A
:103FB0002F70726F7065727479206661696C210070
:103FC00048E40008A0EE0008436F6E7374727563D6
:103FD0007420436F6E74726F6C5265706C792066DA
:103FE00061696C2C72633D256400000068616E6439
:103FF0006C650000496E76616C696420617267755A
:104000006D656E742C202573203D20257000000006
:10401000704A736F6E446F630000000074656D70CA
:104020006C61746520697320646973636F6E6E657B
:1040300063746564000000005265706F7274204400
:104040006F63756D656E743A202573003EB504008C
:1040500012D007F0CDFE06F059FD206808B1FEF73A
:1040600053FAE06A18B1FDF7FFFD0021E162204636
:10407000FDF7FAFD00203EBD07A009A1CDE9001023
:10408000032340F2023202940C490D4800F0EEFF87
:104090006FF064003EBD000068616E646C650000F6
:1040A000496E76616C696420617267756D656E74C6
:1040B0002C202573203D2025700000009EE4000880
:1040C000A0EE0008F0B5A3B01E4617460D466FF0EF
:1040D0006404C8B3002D41D0002E4CD00446FFF735
:1040E000F7FC002852D0E06800280DDA204608F0DE
:1040F000BBF8002808DA27A00090032340F23922F9
:104100002D492E4800F0B2FF03A904F1080004F085
:1041100091FF29480DF17C0C17300FC88CE80F0077
:104120004FF47A70B6FBF0F0C0B200903B462A46DE
:1041300000211FA805F08CFE6E2303AA1FA92046AC
:1041400007F0A8FF23B0F0BDFFE71DA11EA2CDE937
:1041500000210323029040F2292207E021A01AA1A6
:10416000CDE90010032340F22A2202951249134898
:1041700000F07CFF08E01EA00090032340F22B22F9
:104180000D490E4800F072FF2046DBE76FF0CB00D0
:10419000D8E7000053756263726962652024746811
:1041A000696E672F646F776E2F70726F70657274AF
:1041B00079206661696C2100E5E30008A0EE000843
:1041C00068616E646C650000496E76616C6964209C
:1041D000617267756D656E742C202573203D2025F6
:1041E0007000000063616C6C6261636B0000000032
:1041F000496E76616C696420617267756D656E7475
:104200002C206E756D657269632030007FB50C4699
:1042100005006FF064061DD04CB3FFF759FC002871
:1042200031D0FD208DF80C00234603AA1E492846F4
:10423000FFF748FF040024D14FF4FA669DF90C0003
:10424000C01C23D09DF90C0028B3811C25D0401C34
:1042500026D026E015A017A1CDE90010032340F2D7
:104260004E2202951A491B4800F000FF08E01AA0F0
:104270000090032340F24F221549164800F0F6FE45
:10428000304604B070BD6FF0CB00FAE731462846E7
:1042900000F0E4FCD2E7002403E06FF4CA7400E00D
:1042A000144C2046EDE70000D967000868616E6491
:1042B0006C650000496E76616C6964206172677597
:1042C0006D656E742C202573203D20257000000044
:1042D0000CE40008A0EE0008496E76616C69642069
:1042E000617267756D656E742C206E756D6572698F
:1042F000632030006AFEFFFF2DE9FE4F98460C9EBA
:1043000017460D006FF0640A1FD026B300282ED088
:10431000083004F08FFE2846FBF7E9FFA7EB000BFF
:104320006FF49779BBF1010F41D92846FBF7DFFF06
:1043300028442EA25946401EFEF7BEFC594604F002
:1043400095FE002834D1002429E003232BA02EA1C0
:10435000FA22029504E0032332A02BA1FB2202964D
:10436000CDE900103449354800F080FE22E034A148
:1043700025A2CDE9002103230290FE22F2E756F8A0
:104380002400B8B10268AAB1817A00914368594605
:10439000284607F005FB00280AD1641C64B2444596
:1043A000EDDB2846FBF7A3FF3C1A012C04D8484656
:1043B000BDE8FE8F5046FBE72846FBF798FF2844F0
:1043C00022A22146401EFEF777FC214604F04EFE55
:1043D0000400EDD01EA0CDE90004032340F22F120B
:1043E0001549164800F042FE2046E1E72C202270D5
:1043F0006172616D73223A7B000000006A736F6E18
:104400004275666665720000496E76616C6964206B
:10441000617267756D656E742C202573203D2025B3
:10442000700000007044657669636550726F706556
:10443000727469657300000010E30008A0EE0008C4
:104440007074656D706C6174650000007D7D0000A6
:10445000636F6E73747275637420646174617465E4
:104460006D706C617465207265706F72742061721A
:10447000726179206661696C65643A202564000088
:104480002DE9FE4F1C46DDF8309017460D006FF009
:1044900064061FD03CB300282ED00126083004F05B
:1044A000C9FD2846FBF723FFA7EB000A6FF49778B6
:1044B000BAF1010F78D92846FBF719FF284454A216
:1044C0005146401EFEF7F8FB514604F0CFFD002890
:1044D0001FD12BE051A054A1CDE9001003234FF4CC
:1044E000BF72029510E050A156A00091CDE90103E2
:1044F000032340F27F1207E055A14BA2CDE9002132
:10450000032302904FF4C1725449554800F0AEFDA8
:104510003046BDE8FE8FA07A009051462846636879
:1045200007F03EFA0028F4D10C3402D02268002AA9
:10453000F1D12846FBF7DBFE3C1A012C57D928465F
:10454000FBF7D5FE2844801B46A22146FEF7B4FBAC
:10455000214604F08BFD0028DBD12846FBF7C7FE7F
:10456000A7EB000ABAF1010F41D95FEA090411D0A3
:10457000206878B12846FBF7BAFE2844801B3AA28F
:104580005146401EFEF798FB514604F06FFD00288F
:10459000BFD115E039A00090002340F2B9122F4995
:1045A0002F4800F063FD1CE021E0A07A0090514606
:1045B0002846636807F0F4F90028AAD10C3402D029
:1045C0002268002AF1D12846FBF791FE2844801B7F
:1045D0002FA25146FEF770FB514604F047FD00281C
:1045E00097D12846FBF783FE3C1A012C01D84046A0
:1045F0008FE72846FBF77BFE2844801B25A2214637
:10460000FEF75AFB03B02146BDE8F04F04F02EBD83
:104610002C22706172616D73223A7B006A736F6E37
:104620004275666665720000496E76616C69642049
:10463000617267756D656E742C202573203D202591
:104640007000000070506C6174496E666F0000006D
:104650007074656D706C61746500000075E300082E
:10466000A0EE00087D2C00002C226465766963654D
:104670005F6C6162656C223A7B0000004E6F2073B4
:10468000656C6620646566696E6520696E666F009C
:104690007D7D2C007D000000FEB507460D46184EBE
:1046A0000820FDF7EDFE040016D0681CFDF7E8FEBB
:1046B0002060C8B12A4639466560FBF702FE2168D2
:1046C00000204855204605F01AFF0146706903B0E6
:1046D000BDE8F04005F0F0BE0AA00CA1CDE9001045
:1046E00003235722029406E00FA108A2CDE900217E
:1046F000032302905A220F490F4800F0B7FCFEBD79
:104700001C8200206E6F646500000000496E7661B7
:104710006C696420617267756D656E742C202573F9
:10472000203D2025700000006E6F64652D3E6461A1
:10473000746100001DE20008A0EE0008FEB51546F9
:104740000E4658B10446FFF7C3F9A8B103B02A4694
:1047500031462046BDE8F040FFF7D4B808A10AA2D0
:10476000CDE90021029003238B220E490E4800F070
:104770007DFC6FF06400FEBD6FF0CB00FEBD00005D
:1047800068616E646C650000496E76616C696420D6
:10479000617267756D656E742C202573203D202530
:1047A0007000000083E20008A0EE0008FEB5154688
:1047B0000E4658B10446FFF78BF9A8B131462046A2
:1047C00007F0C6FD98B16FF4C870FEBD0CA10EA233
:1047D000CDE900210290032366221249124800F01D
:1047E00045FC6FF06400FEBD6FF0CB00FEBD03B072
:1047F0002A4631462046BDE8F04007F0BDBD000026
:1048000068616E646C650000496E76616C69642055
:10481000617267756D656E742C202573203D2025AF
:104820007000000043E20008A0EE00082DE9F04708
:1048300088B01F46DDE910A691460D466FF064086A
:10484000A8B3002D3DD0002E48D00446FFF740F914
:1048500000284ED0E06800280DDA204607F004FD5D
:10486000002808DA29A0009003234FF4A6723049EB
:10487000304800F0FBFB2E480DF10C0815300FC836
:1048800088E80F004FF47A70B6FBF0F0C0B20090E9
:1048900053463A46012103A805F0DAFA4B462A4668
:1048A00003A9204607F0F6FB08B0BDE8F087FFE754
:1048B00021A123A2CDE90021032302904FF49E728F
:1048C00007E026A01EA1CDE90010032340F23D120F
:1048D00002951749174800F0C9FB08E022A0009094
:1048E00003234FF49F721249124800F0BFFB404669
:1048F000DAE724A00090032340F243120C490D484C
:1049000000F0B4FB6FF0CB00CEE70000537562639C
:104910007269626520247468696E672F646F776EB0
:104920002F70726F7065727479206661696C2100F6
:1049300037E30008A0EE000868616E646C65000053
:10494000496E76616C696420617267756D656E741D
:104950002C202573203D202570000000704A736FC5
:104960006E446F6300000000496E76616C696420DC
:10497000617267756D656E742C206E756D657269F8
:104980006320300074656D706C61746520697320FC
:10499000646973636F6E6E65637465640000000024
:1049A0002DE9F04788B01F46DDE910A691460D4677
:1049B0006FF06408A8B3002D3DD0002E48D0044607
:1049C000FFF786F800284ED0E06800280DDA204670
:1049D00007F04AFC002808DA29A0009003234FF4CE
:1049E000FA723049304800F041FB2E480DF10C08B6
:1049F0001C300FC888E80F004FF47A70B6FBF0F057
:104A0000C0B2009053463A46022103A805F020FAAE
:104A10004B462A4603A9204607F03CFB08B0BDE8F8
:104A2000F087FFE721A123A2CDE900210323029013
:104A30004FF4F27207E026A01EA1CDE90010032377
:104A400040F2E51202951749174800F00FFB08E005
:104A500022A0009003234FF4F3721249124800F091
:104A600005FB4046DAE724A00090032340F2EB1256
:104A70000C490D4800F0FAFA6FF0CB00CEE70000C9
:104A8000537562637269626520247468696E672F6A
:104A9000646F776E2F70726F7065727479206661C3
:104AA000696C210098E30008A0EE000868616E645C
:104AB0006C650000496E76616C696420617267758F
:104AC0006D656E742C202573203D2025700000003C
:104AD000704A736F6E446F6300000000496E766128
:104AE0006C696420617267756D656E742C206E75DB
:104AF0006D6572696320300074656D706C617465FA
:104B000020697320646973636F6E6E656374656496
:104B1000000000002DE9FF411C4690460E460500AE
:104B20006FF0640723D04EB3002C34D0FEF7D0FFD3
:104B300000283DD0FD208DF80C0003A8CDE900042D
:104B4000284B424631462846FFF72AFF04002CD165
:104B50004FF4FA669DF90C00C01C35D09DF90C008D
:104B6000002836D0811C36D0401C37D037E01EA03C
:104B70001FA1032340F20622029505E023A01CA1F9
:104B8000032340F207220296CDE900102249234870
:104B900000F06CFA08E022A0009003234FF40272A8
:104BA0001D491E4800F062FA384604B0BDE8F081A5
:104BB00022A0009003234FF403721749174800F016
:104BC00055FA6FF0CB00F0E73146284600F046F882
:104BD000C0E7002403E06FF4C97400E01E4C2046D7
:104BE000E3E70000C180000868616E646C65000046
:104BF000496E76616C696420617267756D656E746B
:104C00002C202573203D202570000000704A736F12
:104C10006E446F6300000000C4E30008A0EE0008CB
:104C2000496E76616C696420617267756D656E743A
:104C30002C206E756D6572696320300074656D702F
:104C40006C61746520697320646973636F6E6E654F
:104C500063746564000000006CFEFFFF3EB5040055
:104C60000DD0C9B101F0B4FE204605F0DFF82046B2
:104C700005F0D2F8BDE83E400120FEF71BB80BA0BE
:104C80000CA1CDE90010032340F2BB22029410498D
:104C9000104800F0EBF93EBD0FA0009003234FF445
:104CA0002F720B490B4800F0E1F93EBD68616E645C
:104CB0006C650000496E76616C696420617267758D
:104CC0006D656E742C202573203D2025700000003A
:104CD00074E40008A0EE0008496E76616C696420F7
:104CE000617267756D656E742C206E756D65726985
:104CF00063203000002210B511461046FCF7BEFDBF
:104D00000022BDE8104011461046FCF7B7BDFEF783
:104D1000A4B900002DE9F84300252C46202004F01A
:104D2000C7F9402004F0C4F942F21078424600214D
:104D3000802003F0B3FD07466FF063060EE02BA161
:104D4000384603F0F7FD20B12CA00323C8220090C1
:104D50003FE04146202007F0F1FF18B92046641CCF
:104D60000A28ECDB21A1384603F0E4FD20B123A0A2
:104D70000323D72200902CE04FF4FA61202007F0A3
:104D8000DDFF30B144464146402007F0D7FF28B14F
:104D900016E021A00323DE2200901AE041F28830C1
:104DA000FDF788FF24A1384603F0C4FD40B128A0D8
:104DB00000900323E9222D492D4800F057F935468C
:104DC0002146402007F0BAFF40B913A00323F02288
:104DD00000902649264800F049F9354617B1384673
:104DE00003F090FD2846BDE8F883000041542B54A1
:104DF000435245474E45543F00000000636D642018
:104E000041542B54435245474E45543F20657865E5
:104E100063206572720000004C3230362072656784
:104E20006973746572206E6574776F726B20746934
:104E30006D656F757400000041542B544352454713
:104E40004E45543D302C22434D4E45542200000027
:104E5000636D642041542B54435245474E455420C2
:104E60006578656320657272000000007FE00008CD
:104E7000A0ED000810B50A46044604A11046FBF751
:104E80003DFA00B101202070002010BD66616C73F6
:104E90006500000010B50B46024605A11846FBF759
:104EA00071FA012802D06FF0630010BD002010BD20
:104EB000256C660010B50B46024605A11846FBF7A7
:104EC00061FA012802D06FF0630010BD002010BD10
:104ED0002566000010B50B46024605A11846FBF7F3
:104EE00051FA012802D06FF0630010BD002010BD00
:104EF0002568690010B50B46024605A11846FBF768
:104F000041FA012802D06FF0630010BD002010BDEF
:104F10002569000010B50B46024605A11846FBF7AF
:104F200031FA012802D06FF0630010BD002010BDDF
:104F3000256868640000000070B514460E460546FA
:104F4000FBF7BFF968B13046FBF7D1F9A04203D2B5
:104F50003046FBF7CCF900E02046002129540846F2
:104F600070BD6FF0630070BD10B50B46024605A121
:104F70001846FBF707FA012802D06FF0630010BD56
:104F8000002010BD2568750010B50B46024605A12E
:104F90001846FBF7F7F9012802D06FF0630010BD47
:104FA000002010BD2575000010B50B46024605A176
:104FB0001846FBF7E7F9012802D06FF0630010BD37
:104FC000002010BD25686875000000002DE9FC4731
:104FD00006464FF0FF300F464FF0000801902E219B
:104FE0003046FBF77AF9040020D0A51B681CFDF7BA
:104FF00047FA81462A463146FBF763F9464609F8E7
:1050000005803846FBF773F9014601AB4A4638463E
:10501000009605F047F928B10746661C4846FCF79C
:1050200023FEDCE74846FCF71FFE1BE03846FBF793
:105030005EF9014601AB32463846CDF8008005F0F6
:1050400031F905000ED00198401CFDF719FA040053
:1050500008D001992B4604A2491CFDF72DFE2046DD
:10506000BDE8FC870020FBE7257300002DE9F8432D
:10507000144D88461C462978164607468B421DDB90
:10508000687800281AD1012169702F213846FBF772
:1050900068F9A8B1401C02460A480096001D434624
:1050A00050F8241008A0FDF7C1FA09A9089801F0EA
:1050B00083F8002408A0FDF7B9FA6C70BDE8F88306
:1050C0003846E8E7F400002025737C25737C2573BF
:1050D000282564293A2000000D0A00003EB500246E
:1050E00013480094019402948460C4600F494461A1
:1050F0000160012505614FF460214460C161FCF746
:105100007FFC18B16A210BA000F088FD0A20CDE9D0
:105110000005694602940648FCF7EEFB002803D020
:10512000732104A000F07AFD3EBD0000003C014068
:10513000740300202E2E5C5372635C626F61726494
:105140002E6300000E4810B50C4901600D49416006
:1051500000214FF480428160C0E903124161816106
:10516000C1610162FCF7AEFE002806D0BDE8104028
:1051700040F26911044800F051BD10BD00540040D8
:10518000A0020020801A0600345100080E4810B515
:105190000C4901600D49416000214FF4804281605B
:1051A000C0E9031241618161C1610162FCF78AFEBD
:1051B000002806D0BDE8104040F25511044800F028
:1051C0002DBD10BD005800404C020020801A060082
:1051D0003451000810B5174886B04FF08041016087
:1051E00040F2E7310024C0E90114C0E903148461EE
:1051F000FDF795FD18B18C210F4800F00FFD4FF41D
:105200008050009069460B48FDF7CEFD18B1922101
:10521000094800F003FD049404A906480594FDF72D
:1052200056FD002803D09921034800F0F7FC06B092
:1052300010BD00000C020020345100080D4810B5CC
:105240000B4901604FF4E1314160002181600C2283
:10525000C160C0E904128161C161FDF701FF00284E
:1052600005D0BDE81040E921034800F0D7BC10BDCF
:10527000004C004034030020345100080D4810B5A4
:105280000B4901604FF4E1314160002181600C2243
:10529000C160C0E904128161C161FDF7E1FE00282F
:1052A00005D0BDE81040AD21034800F0B7BC10BDEB
:1052B00000380140F402002034510008FEE70000ED
:1052C00070B54FF480410C4C4D00012804D00228E9
:1052D0004FF000020BD000E001222046FCF7BCFD9D
:1052E000002229462046BDE87040FCF7B5BD2046A7
:1052F000FCF7B2FD0122F4E70018014070470907EE
:10530000090E002806DA00F00F0000F1E02080F816
:10531000141D704700F1E02080F800147047000071
:105320002DE9F0470024203A894682462646D5B228
:105330004FF0FF38102B0DD000F016F91B4905EB8C
:10534000450001EB40054020295D00F05DF928B3E0
:10535000464627E000F008F9154F04EB0510395CCC
:10536000402000F051F90028F2D1641CE4B2082C6E
:10537000F3D309F10100C1B2504600F0F5F8002462
:1053800004EB05103844017A402000F03DF9002874
:10539000DED1641CE4B2082CF2D303E0641CE4B256
:1053A000062CD0D33046BDE8F0870000A8DC00080A
:1053B000B8D600082DE9F0410746002606F1B000F6
:1053C000C1B2002000F020F904460121002000F0C5
:1053D0001BF940EA04051021002000F015F940EA0D
:1053E000050400253946402000F00EF92043040052
:1053F00007D16D1CEDB2802DF4D3761CF6B2082EC9
:10540000DCD3BDE8F08170B5AE21002000F0FCF8DF
:1054100004460021084600F0F7F80443002108463E
:1054200000F0F2F840EA04054021002000F0ECF81A
:1054300040EA05048121002000F0E6F840EA040576
:10544000CF21002000F0E0F840EA0506A12100206D
:1054500000F0DAF840EA0604C821002000F0D4F891
:1054600040EA0405A721002000F0CEF840EA050438
:10547000A821002000F0C8F840EA04053F210020E0
:1054800000F0C2F840EA0504D321002000F0BCF887
:1054900040EA04050021084600F0B6F840EA050499
:1054A000D521002000F0B0F840EA0405802100205A
:1054B00000F0AAF840EA0504D921002000F0A4F881
:1054C00040EA0405F121002000F09EF840EA0504BE
:1054D000DA21002000F098F840EA040512210020AB
:1054E00000F092F840EA0504DB21002000F08CF87F
:1054F00040EA04054021002000F086F840EA050457
:105500002021002000F080F840EA0405022100205C
:1055100000F07AF840EA05048D21002000F074F8CC
:1055200040EA04051421002000F06EF840EA05046A
:10553000A421002000F068F840EA0405A62100201C
:1055400000F062F840EA0504AF21002000F05CF8AA
:1055500040EA04050020FFF72DFF40EA050464201F
:10556000FCF76EFB204670BD70B50546B031C9B280
:10557000002000F049F80446102040EA15110020F0
:1055800000F042F8044305F00F01002000F03CF861
:10559000204370BD2DE9F047044608981F46904609
:1055A0000D46002610B92878082822D90020287036
:1055B000FFF700FF0A20FCF743FB1AE029783B467F
:1055C0002046FFF7ADFE5FEA000916D1102F02D08A
:1055D000082F02D003E0083400E0A41DE4B2C7F1B4
:1055E0008000A04203DA28780024401C2870761C32
:1055F000F6B218F80620002AE0D114B12878401C31
:1056000028704846BDE8F0871CB5002201928DF84D
:1056100004004FF48050009004488DF805100223D8
:1056200001AA78210068FCF7F9FD1CBD10000020DC
:105630002DE9F0478946824694B015462DA1D668DB
:105640001068FAF75BFEB8BB002415E004EB4408D1
:105650002BA156F82800FAF751FE60B906EB880036
:105660000023406859222B49076826A0CDE900078E
:105670002948FFF7FBFC641C287AA042E6DC0022E4
:105680001146FF20FCF7FAF83846FDF713FB00221D
:10569000FF211046FCF7F2F83846FDF70BFB00211E
:1056A000FF220846FCF7EAF83846FDF703FB002224
:1056B00011461046FCF7E2F8482102A8FAF7E4FD8B
:1056C00042F21070002402AE02908DF80C4013A13B
:1056D000701DFAF72EFE2869184A49464068046092
:1056E0001548CDE9005643685046FEF73FF814B020
:1056F000BDE8F087666C6F775F6C65640000000042
:10570000696E7600696E70757420696E763A2564EC
:10571000000000007AE800084CF10008666C6F7722
:105720005F6C656420657865637574652073756367
:105730006365737321000000680100206488002005
:105740002DE9FC41144E1D46002406EB0410296887
:105750000068FAF7D3FD70B1641C052CF5DB2968ED
:105760000EA0CDE900010323912214491448FFF74C
:105770007DFCBDE8FC81012706EB04103B46077366
:10578000296810A0CDE900018B220C490C48FFF7D5
:105790006DFC11480770ECE70088002050726F70B4
:1057A000657274793D2573206368616E6765642056
:1057B0006E6F206D6174636800000000AAE8000845
:1057C0004CF1000850726F70657274793D2573203A
:1057D0006368616E67656400680100200EB505A00E
:1057E0008DE80D000123AA220A490B48FFF73EFC71
:1057F0000EBD000072656376207265706F72745F13
:105800007265706C792861636B3D2564293A2025A7
:1058100073000000E0E800084CF1000805F076BDD8
:1058200030B595B018210AA8FAF72EFD01200225FF
:105830000490009510200024059007946846FDF719
:105840009BF818B1312117A000F0E8F90F20CDE93D
:10585000100412941394002110A81494FCF768FF0C
:1058600018B13F210FA000F0D9F90AA80A950C94AD
:10587000FCF7EAFE18B146210AA000F0CFF9FDF7C7
:105880001FF84FF47A71B0FBF1F0FDF7FFF9042037
:10589000FDF7F0F900220F21501EFCF795FE15B020
:1058A00030BD00002E2E5C5372635C626F617264C7
:1058B0002E6300000D48016841F00101016041685C
:1058C0000B4A1140416001680A4A114001600168B9
:1058D00021F480210160416821F4FE0141604FF410
:1058E0001F0181600449C003086070470010024036
:1058F0000000FFF8FFFFF6FE08ED00E00148FDF7AD
:10590000CCBA0000CC0100200148FDF7C6BA000067
:105910000C020020F0B502681C4D1D4E1D4FDFF833
:1059200078C01E4B4FF0804EA84209D0984207D055
:10593000704505D0B04203D0B84201D0604503D1D4
:1059400022F070044A682243A84209D0984207D046
:10595000704505D0B04203D0B84201D0604503D1B4
:1059600022F44074CA6822434C6922F08002144336
:1059700004608A68C2620A688262A84201D09842C2
:1059800001D10969016301214161F0BD002C014091
:105990000004004000080040000C004000340140BA
:1059A00010B5846842EA032224F47F440A43224368
:1059B000826010BD826822F070020A4342F0070143
:1059C0008160704710B5046A036A23F00103036223
:1059D000836923F0F00343EA021324F00A020A4326
:1059E0008361026210BD10B5036A23F010030362E5
:1059F0008469036A24F4704444EA023223F0A00369
:105A000043EA01118261016210BDC043C0F38110FD
:105A1000704700001CB50A4C206800680168C94343
:105A2000890607D440688DF80000012269460548C0
:105A300006F007FB206800680168406801901CBD03
:105A4000F0000020D47C00202DE9F04104460068DD
:105A50000169E26821F4405111430161A1682069A4
:105A60000143606901432068C26841F20C639A43B4
:105A70000A43C26020684169A26921F44071114360
:105A800041614C4920686426322788423CD1FCF7AA
:105A90002DFF00EBC00101EB001061688900B0FB35
:105AA000F1F5FCF723FF00EBC00101EB001061688A
:105AB000B8468900B0FBF1F0B0FBF6F06FF01801CA
:105AC000484305EB800107EB0110B0FBF6F000F056
:105AD000F005FCF70BFF00EBC00101EB0010616863
